:100000001EC038C037C036C035C035C033C032C05E
:1000100031C030C02FC02EC02DC02CC02BC000005E
:100020000000380000000000370002020202020255
:100030000202020201020408102020041008112408
:100040001FBECFE5D2E0DEBFCDBF10E0A0E6B0E03E
:10005000E0EAF2E002C005900D92A036B107D9F7B0
:1000600020E0A0E6B0E001C01D92A936B207E1F79A
:100070004CD014C1C5CF1F920F920FB60F9211240E
:100080002F933F938F939F93AF93BF93809165007E
:1000900090916600A0916700B09168003091640073
:1000A00026E0230F2D3720F40296A11DB11D05C0B7
:1000B00029E8230F0396A11DB11D209364008093AE
:1000C000650090936600A0936700B09368008091EC
:1000D000600090916100A0916200B0916300019670
:1000E000A11DB11D8093600090936100A0936200F8
:1000F000B0936300BF91AF919F918F913F912F91EA
:100100000F900FBE0F901F90189578948AB582605B
:100110008ABD8AB581608ABD83B7826083BF83B799
:10012000816083BF89B7826089BF80B7826080BFEA
:1001300080B7816080BF329A319A3098379A8CB5F7
:1001400080648CBDE5E3F0E02491EBE2F0E0849183
:10015000882399F090E0880F991FFC01EC5DFF4F18
:10016000A591B491FC01E25EFF4F859194918FB708
:10017000F894EC91E22BEC938FBF81E28ABD89E089
:1001800083BF80EA89BD80E588BD2FEF87EA91E6CD
:10019000215080409040E1F700C00000CC24CA9478
:1001A00083E0D82EE12CF12CC0E0D0E011E017B9AB
:1001B000369A3699FECF64B175B1072E000C880BC4
:1001C000990B20EA30E040E050E011D0A701960101
:1001D00027D028BD2FEF81EE94E021508040904041
:1001E000E1F700C00000209711F30ADFE0CFEE270F
:1001F000FF27AA27BB2708C0A20FB31FE41FF51FC4
:10020000220F331F441F551F969587957795679545
:1002100098F37040A9F7009799F7BD01CF010895B1
:10022000052E97FB16F400940FD057FD05D014D07F
:1002300007FC02D046F408C05095409530952195B2
:100240003F4F4F4F5F4F0895909580957095619502
:100250007F4F8F4F9F4F0895A1E21A2EAA1BBB1B01
:10026000FD010DC0AA1FBB1FEE1FFF1FA217B30782
:10027000E407F50720F0A21BB30BE40BF50B661F98
:10028000771F881F991F1A9469F76095709580955C
:1002900090959B01AC01BD01CF010895F894FFCF6B
:00000001FF
